:100000000C942A000C9419020C9447000C9447009D
:100010000C9447000C9447000C9447000C94470044
:100020000C9447000C9447000C9447000C94470034
:100030000C9447000C94FD020C9447000C94D602DB
:100040000C9447000C9447000C9447000C94470014
:100050000C94470011241FBECFE5D8E0DEBFCDBF12
:1000600010E0A0E6B0E0E0E9F6E002C005900D92F5
:10007000A237B107D9F720E0A2E7B0E001C01D9296
:10008000AB39B207E1F70E94A0010C9446030C942F
:100090000000E0917F00F0E080917900A09176006F
:1000A000B0917700A80FB11D8C91E058FF4F80836D
:1000B00080917F008F5F80937F0010927900109273
:1000C0007C00089581E0809364000895CF93DF93CE
:1000D00080917A0090E02091720030917300821735
:1000E0009307E0F480917A00C0917600D091770078
:1000F000C80FD11D0E94C60288834FEF61E080E0E7
:100100000E94C10161E080E00E94F50180917A00C7
:100110008F5F80937A0081E080937B00DF91CF91A5
:1001200008950F931F93CF93DF93EC018B01892BDD
:1001300011F0672B21F40E94490080E001C081E0AA
:100140009091750091110AC0E2E7F0E0D583C48375
:100150001183008391E090937C009383DF91CF9192
:100160001F910F910895CF93DF9380917C00813090
:1001700021F0823009F4CCC0D3C080917800813066
:1001800089F120F0823009F474C09CC0809176001F
:1001900090917700009719F13091790020917A00C1
:1001A000321708F08FC020917900FC01E20FF11D99
:1001B0002081213619F00E94490084C020917900E5
:1001C000FC01E20FF11D80810E94C3028091790041
:1001D0008F5F8093790081E08093780073C00E94E4
:1001E000490070C09091790080917A00981708F0CA
:1001F00069C0E2E7F0E04481558120917900808177
:100200009181FA01E20FF11D208130E0BC017727D6
:100210002617370771F480917900FA01E80FF11D74
:1002200080810E94C302809179008F5F8093790062
:1002300049C020917900FA01E20FF11D208130E0E0
:10024000892F99272817390789F482E0809378004D
:1002500080917900FA01E80FF11D80810E94C302AC
:10026000809179008F5F809379002CC00E944900B3
:1002700029C08091790090E0209172003091730044
:1002800082179307F8F480917900C2E7D0E0EC81FF
:10029000FD81E80FF11D80810E94C30280917900E9
:1002A000A0E6B0E0EC81FD81E80FF11D9081119690
:1002B0008C911197890F11968C93809179008F5FA3
:1002C000809379008091790090E0209172003091C4
:1002D000730082179307C0F080917900C2E7D0E0E5
:1002E000EC81FD81E80FF11D80810E94C302E09145
:1002F0007D00F0917E00099510927C0010927900AB
:1003000010927A001B820CC082E080937C0008C0AF
:1003100080917B00813021F480937C0010927B00DF
:10032000DF91CF91089582E690E00E94C80286E6B0
:1003300090E00E94CF0288E690E00E947602089545
:10034000CF93DF93CDB7DEB729970FB6F894DEBF12
:100350000FBECDBF8E010F5F1F4F89E0F8011192D4
:100360008A95E9F70E9493014FEF61E080E00E94D7
:10037000C10169E070E0C8010E9491000E94B300D1
:10038000FDCF813089F028F08230C9F0833011F13F
:1003900008954F3F21F48AB3682B6ABB08958AB34E
:1003A000609568236ABB08954F3F21F487B3682B9B
:1003B00067BB089587B36095682367BB08954F3F77
:1003C00021F484B3682B64BB089584B360956823DB
:1003D00064BB08954F3F21F481B3682B61BB08953E
:1003E00081B36095682361BB0895813051F028F096
:1003F000823059F0833069F008958BB368276BBB66
:10040000089588B3682768BB089585B3682765BBDE
:10041000089582B3682762BB089595B79C7F837067
:10042000892B85BF8FB780688FBF8BB780648BBFE8
:1004300008951F920F920FB60F9211242F933F939E
:100440004F935F936F937F938F939F93AF93BF93DC
:10045000EF93FF93809192008F5F80939200809141
:100460009200813069F482E00E940D0212BE109267
:10047000930010929400109295001092960025C05F
:1004800080919200823008F11092920082B790E041
:10049000A0E0B0E080938E0090938F00A093900036
:1004A000B09391008091930090919400A091950059
:1004B000B091960080938A0090938B00A0938C005B
:1004C000B0938D0083E00E940D02FF91EF91BF91E8
:1004D000AF919F918F917F916F915F914F913F91DC
:1004E0002F910F900FBE0F901F901895FC018FB7A2
:1004F00080688FBF8AB14AB195819470292F30E00E
:10050000220F331F220F331F8B7F806C282B242B4D
:100510002AB9228130E4239FC0011124438150E194
:10052000459F90011124282B322F30682481220FFF
:10053000220F220F922F932B25812370220F292B1C
:1005400020BD27813085C901A0E0B0E0880F991F48
:10055000AA1FBB1F880F991FAA1FBB1F9C01AD01BB
:10056000220F331F441F551F220F331F441F551FD7
:1005700060E072E18AE790E00E942403215029B9EB
:1005800010BC81E008958CB981E008958CB1089584
:10059000009721F090939A00809399000895009716
:1005A00021F090939A008093990008951F920F92E2
:1005B0000FB60F9211242F933F934F935F936F9336
:1005C0007F938F939F93AF93BF93EF93FF93E091AC
:1005D0009900F0919A000995FF91EF91BF91AF9129
:1005E0009F918F917F916F915F914F913F912F914B
:1005F0000F900FBE0F901F9018951F920F920FB67D
:100600000F9211242F933F934F935F936F937F9398
:100610008F939F93AF93BF93EF93FF93E0919700D6
:10062000F09198000995FF91EF91BF91AF919F9143
:100630008F917F916F915F914F913F912F910F908B
:100640000FBE0F901F901895A1E21A2EAA1BBB1B7C
:10065000FD010DC0AA1FBB1FEE1FFF1FA217B3078E
:10066000E407F50720F0A21BB30BE40BF50B661FA4
:10067000771F881F991F1A9469F760957095809568
:1006800090959B01AC01BD01CF010895F894FFCF77
:1006900023000000000000000101000000030080B2
:0206A000250033
:00000001FF
